{
  "_format": "hh-sol-artifact-1",
  "contractName": "AgreementContract",
  "sourceName": "contracts/AgreementContract.sol",
  "abi": [
    {
      "anonymous": false,
      "inputs": [
        {
          "indexed": false,
          "internalType": "uint256",
          "name": "agreementId",
          "type": "uint256"
        },
        {
          "indexed": false,
          "internalType": "bytes32",
          "name": "agreementHash",
          "type": "bytes32"
        }
      ],
      "name": "AgreementCreated",
      "type": "event"
    },
    {
      "inputs": [],
      "name": "agreementCount",
      "outputs": [
        {
          "internalType": "uint256",
          "name": "",
          "type": "uint256"
        }
      ],
      "stateMutability": "view",
      "type": "function"
    },
    {
      "inputs": [
        {
          "internalType": "uint256",
          "name": "",
          "type": "uint256"
        }
      ],
      "name": "agreements",
      "outputs": [
        {
          "internalType": "uint256",
          "name": "agreementId",
          "type": "uint256"
        },
        {
          "internalType": "uint256",
          "name": "proposalId",
          "type": "uint256"
        },
        {
          "internalType": "string",
          "name": "content",
          "type": "string"
        },
        {
          "internalType": "uint256",
          "name": "deposit",
          "type": "uint256"
        },
        {
          "internalType": "string",
          "name": "depositStatus",
          "type": "string"
        },
        {
          "internalType": "string",
          "name": "agreementStatus",
          "type": "string"
        },
        {
          "internalType": "bool",
          "name": "tenantSignature",
          "type": "bool"
        },
        {
          "internalType": "bool",
          "name": "ownerSignature",
          "type": "bool"
        },
        {
          "internalType": "bytes32",
          "name": "agreementHash",
          "type": "bytes32"
        }
      ],
      "stateMutability": "view",
      "type": "function"
    },
    {
      "inputs": [
        {
          "internalType": "uint256",
          "name": "proposalId",
          "type": "uint256"
        },
        {
          "internalType": "string",
          "name": "content",
          "type": "string"
        },
        {
          "internalType": "uint256",
          "name": "deposit",
          "type": "uint256"
        },
        {
          "internalType": "string",
          "name": "depositStatus",
          "type": "string"
        },
        {
          "internalType": "string",
          "name": "agreementStatus",
          "type": "string"
        }
      ],
      "name": "createAgreement",
      "outputs": [
        {
          "internalType": "uint256",
          "name": "",
          "type": "uint256"
        }
      ],
      "stateMutability": "nonpayable",
      "type": "function"
    },
    {
      "inputs": [
        {
          "internalType": "uint256",
          "name": "agreementId",
          "type": "uint256"
        }
      ],
      "name": "getAgreement",
      "outputs": [
        {
          "internalType": "uint256",
          "name": "agreementId_",
          "type": "uint256"
        },
        {
          "internalType": "uint256",
          "name": "proposalId",
          "type": "uint256"
        },
        {
          "internalType": "string",
          "name": "content",
          "type": "string"
        },
        {
          "internalType": "uint256",
          "name": "deposit",
          "type": "uint256"
        },
        {
          "internalType": "string",
          "name": "depositStatus",
          "type": "string"
        },
        {
          "internalType": "string",
          "name": "agreementStatus",
          "type": "string"
        },
        {
          "internalType": "bool",
          "name": "tenantSignature",
          "type": "bool"
        },
        {
          "internalType": "bool",
          "name": "ownerSignature",
          "type": "bool"
        },
        {
          "internalType": "bytes32",
          "name": "agreementHash",
          "type": "bytes32"
        }
      ],
      "stateMutability": "view",
      "type": "function"
    },
    {
      "inputs": [
        {
          "internalType": "uint256",
          "name": "agreementId",
          "type": "uint256"
        },
        {
          "internalType": "string",
          "name": "newDepositStatus",
          "type": "string"
        },
        {
          "internalType": "string",
          "name": "newAgreementStatus",
          "type": "string"
        },
        {
          "internalType": "bool",
          "name": "newTenantSignature",
          "type": "bool"
        },
        {
          "internalType": "bool",
          "name": "newOwnerSignature",
          "type": "bool"
        }
      ],
      "name": "updateAgreement",
      "outputs": [],
      "stateMutability": "nonpayable",
      "type": "function"
    }
  ],
  "bytecode": "0x6080604052348015600f57600080fd5b5061125d8061001f6000396000f3fe608060405234801561001057600080fd5b50600436106100575760003560e01c80633180ceb91461005c5780634f9f6fe61461008c57806375faa3d0146100c4578063bb7bb278146100e0578063bd14de96146100fe575b600080fd5b6100766004803603810190610071919061095f565b610136565b6040516100839190610a3d565b60405180910390f35b6100a660048036038101906100a19190610a58565b6102d7565b6040516100bb99989796959493929190610b38565b60405180910390f35b6100de60048036038101906100d99190610c06565b610503565b005b6100e86105c9565b6040516100f59190610a3d565b60405180910390f35b61011860048036038101906101139190610a58565b6105cf565b60405161012d99989796959493929190610b38565b60405180910390f35b60006001600081548092919061014b90610ce8565b91905055506000868686868660405160200161016b959493929190610d8d565b6040516020818303038152906040528051906020012090506040518061012001604052806001548152602001888152602001878152602001868152602001858152602001848152602001600015158152602001600015158152602001828152506000806001548152602001908152602001600020600082015181600001556020820151816001015560408201518160020190816102089190610fec565b506060820151816003015560808201518160040190816102289190610fec565b5060a082015181600501908161023e9190610fec565b5060c08201518160060160006101000a81548160ff02191690831515021790555060e08201518160060160016101000a81548160ff02191690831515021790555061010082015181600701559050507f50a46dcb97f8813214248e32b6b527c894938ab468de08d9a42a52c87d786076600154826040516102c09291906110be565b60405180910390a160015491505095945050505050565b600080606060006060806000806000806000808c815260200190815260200160002090508060000154816001015482600201836003015484600401856005018660060160009054906101000a900460ff168760060160019054906101000a900460ff16886007015486805461034b90610e0f565b80601f016020809104026020016040519081016040528092919081815260200182805461037790610e0f565b80156103c45780601f10610399576101008083540402835291602001916103c4565b820191906000526020600020905b8154815290600101906020018083116103a757829003601f168201915b505050505096508480546103d790610e0f565b80601f016020809104026020016040519081016040528092919081815260200182805461040390610e0f565b80156104505780601f1061042557610100808354040283529160200191610450565b820191906000526020600020905b81548152906001019060200180831161043357829003601f168201915b5050505050945083805461046390610e0f565b80601f016020809104026020016040519081016040528092919081815260200182805461048f90610e0f565b80156104dc5780601f106104b1576101008083540402835291602001916104dc565b820191906000526020600020905b8154815290600101906020018083116104bf57829003601f168201915b50505050509350995099509950995099509950995099509950509193959799909294969850565b600080600087815260200190815260200160002090508481600401908161052a9190610fec565b508381600501908161053c9190610fec565b50828160060160006101000a81548160ff021916908315150217905550818160060160016101000a81548160ff021916908315150217905550600081600101548260020183600301548888888860405160200161059f97969594939291906111b2565b60405160208183030381529060405280519060200120905080826007018190555050505050505050565b60015481565b60006020528060005260406000206000915090508060000154908060010154908060020180546105fe90610e0f565b80601f016020809104026020016040519081016040528092919081815260200182805461062a90610e0f565b80156106775780601f1061064c57610100808354040283529160200191610677565b820191906000526020600020905b81548152906001019060200180831161065a57829003601f168201915b50505050509080600301549080600401805461069290610e0f565b80601f01602080910402602001604051908101604052809291908181526020018280546106be90610e0f565b801561070b5780601f106106e05761010080835404028352916020019161070b565b820191906000526020600020905b8154815290600101906020018083116106ee57829003601f168201915b50505050509080600501805461072090610e0f565b80601f016020809104026020016040519081016040528092919081815260200182805461074c90610e0f565b80156107995780601f1061076e57610100808354040283529160200191610799565b820191906000526020600020905b81548152906001019060200180831161077c57829003601f168201915b5050505050908060060160009054906101000a900460ff16908060060160019054906101000a900460ff16908060070154905089565b6000604051905090565b600080fd5b600080fd5b6000819050919050565b6107f6816107e3565b811461080157600080fd5b50565b600081359050610813816107ed565b92915050565b600080fd5b600080fd5b6000601f19601f8301169050919050565b7f4e487b7100000000000000000000000000000000000000000000000000000000600052604160045260246000fd5b61086c82610823565b810181811067ffffffffffffffff8211171561088b5761088a610834565b5b80604052505050565b600061089e6107cf565b90506108aa8282610863565b919050565b600067ffffffffffffffff8211156108ca576108c9610834565b5b6108d382610823565b9050602081019050919050565b82818337600083830152505050565b60006109026108fd846108af565b610894565b90508281526020810184848401111561091e5761091d61081e565b5b6109298482856108e0565b509392505050565b600082601f83011261094657610945610819565b5b81356109568482602086016108ef565b91505092915050565b600080600080600060a0868803121561097b5761097a6107d9565b5b600061098988828901610804565b955050602086013567ffffffffffffffff8111156109aa576109a96107de565b5b6109b688828901610931565b94505060406109c788828901610804565b935050606086013567ffffffffffffffff8111156109e8576109e76107de565b5b6109f488828901610931565b925050608086013567ffffffffffffffff811115610a1557610a146107de565b5b610a2188828901610931565b9150509295509295909350565b610a37816107e3565b82525050565b6000602082019050610a526000830184610a2e565b92915050565b600060208284031215610a6e57610a6d6107d9565b5b6000610a7c84828501610804565b91505092915050565b600081519050919050565b600082825260208201905092915050565b60005b83811015610abf578082015181840152602081019050610aa4565b60008484015250505050565b6000610ad682610a85565b610ae08185610a90565b9350610af0818560208601610aa1565b610af981610823565b840191505092915050565b60008115159050919050565b610b1981610b04565b82525050565b6000819050919050565b610b3281610b1f565b82525050565b600061012082019050610b4e600083018c610a2e565b610b5b602083018b610a2e565b8181036040830152610b6d818a610acb565b9050610b7c6060830189610a2e565b8181036080830152610b8e8188610acb565b905081810360a0830152610ba28187610acb565b9050610bb160c0830186610b10565b610bbe60e0830185610b10565b610bcc610100830184610b29565b9a9950505050505050505050565b610be381610b04565b8114610bee57600080fd5b50565b600081359050610c0081610bda565b92915050565b600080600080600060a08688031215610c2257610c216107d9565b5b6000610c3088828901610804565b955050602086013567ffffffffffffffff811115610c5157610c506107de565b5b610c5d88828901610931565b945050604086013567ffffffffffffffff811115610c7e57610c7d6107de565b5b610c8a88828901610931565b9350506060610c9b88828901610bf1565b9250506080610cac88828901610bf1565b9150509295509295909350565b7f4e487b7100000000000000000000000000000000000000000000000000000000600052601160045260246000fd5b6000610cf3826107e3565b91507fffffffffffffffffffffffffffffffffffffffffffffffffffffffffffffffff8203610d2557610d24610cb9565b5b600182019050919050565b6000819050919050565b610d4b610d46826107e3565b610d30565b82525050565b600081905092915050565b6000610d6782610a85565b610d718185610d51565b9350610d81818560208601610aa1565b80840191505092915050565b6000610d998288610d3a565b602082019150610da98287610d5c565b9150610db58286610d3a565b602082019150610dc58285610d5c565b9150610dd18284610d5c565b91508190509695505050505050565b7f4e487b7100000000000000000000000000000000000000000000000000000000600052602260045260246000fd5b60006002820490506001821680610e2757607f821691505b602082108103610e3a57610e39610de0565b5b50919050565b60008190508160005260206000209050919050565b60006020601f8301049050919050565b600082821b905092915050565b600060088302610ea27fffffffffffffffffffffffffffffffffffffffffffffffffffffffffffffffff82610e65565b610eac8683610e65565b95508019841693508086168417925050509392505050565b6000819050919050565b6000610ee9610ee4610edf846107e3565b610ec4565b6107e3565b9050919050565b6000819050919050565b610f0383610ece565b610f17610f0f82610ef0565b848454610e72565b825550505050565b600090565b610f2c610f1f565b610f37818484610efa565b505050565b5b81811015610f5b57610f50600082610f24565b600181019050610f3d565b5050565b601f821115610fa057610f7181610e40565b610f7a84610e55565b81016020851015610f89578190505b610f9d610f9585610e55565b830182610f3c565b50505b505050565b600082821c905092915050565b6000610fc360001984600802610fa5565b1980831691505092915050565b6000610fdc8383610fb2565b9150826002028217905092915050565b610ff582610a85565b67ffffffffffffffff81111561100e5761100d610834565b5b6110188254610e0f565b611023828285610f5f565b600060209050601f8311600181146110565760008415611044578287015190505b61104e8582610fd0565b8655506110b6565b601f19841661106486610e40565b60005b8281101561108c57848901518255600182019150602085019450602081019050611067565b868310156110a957848901516110a5601f891682610fb2565b8355505b6001600288020188555050505b505050505050565b60006040820190506110d36000830185610a2e565b6110e06020830184610b29565b9392505050565b600081546110f481610e0f565b6110fe8186610d51565b94506001821660008114611119576001811461112e57611161565b60ff1983168652811515820286019350611161565b61113785610e40565b60005b838110156111595781548189015260018201915060208101905061113a565b838801955050505b50505092915050565b60008160f81b9050919050565b60006111828261116a565b9050919050565b600061119482611177565b9050919050565b6111ac6111a782610b04565b611189565b82525050565b60006111be828a610d3a565b6020820191506111ce82896110e7565b91506111da8288610d3a565b6020820191506111ea8287610d5c565b91506111f68286610d5c565b9150611202828561119b565b600182019150611212828461119b565b6001820191508190509897505050505050505056fea2646970667358221220d1b02b105680e6cce3425d92a522a4efa206f0db3e113de8d9aaca3d95dc391264736f6c634300081b0033",
  "linkReferences": {},
  "deployedLinkReferences": {}
}