{
  "_format": "hh-sol-artifact-1",
  "contractName": "AgreementContract",
  "sourceName": "contracts/AgreementContract.sol",
  "abi": [
    {
      "anonymous": false,
      "inputs": [
        {
          "indexed": false,
          "internalType": "uint256",
          "name": "agreementId",
          "type": "uint256"
        },
        {
          "indexed": false,
          "internalType": "bytes32",
          "name": "agreementHash",
          "type": "bytes32"
        }
      ],
      "name": "AgreementCreated",
      "type": "event"
    },
    {
      "inputs": [],
      "name": "agreementCount",
      "outputs": [
        {
          "internalType": "uint256",
          "name": "",
          "type": "uint256"
        }
      ],
      "stateMutability": "view",
      "type": "function"
    },
    {
      "inputs": [
        {
          "internalType": "uint256",
          "name": "",
          "type": "uint256"
        }
      ],
      "name": "agreements",
      "outputs": [
        {
          "internalType": "uint256",
          "name": "agreementId",
          "type": "uint256"
        },
        {
          "internalType": "uint256",
          "name": "proposalId",
          "type": "uint256"
        },
        {
          "internalType": "string",
          "name": "content",
          "type": "string"
        },
        {
          "internalType": "uint256",
          "name": "deposit",
          "type": "uint256"
        },
        {
          "internalType": "string",
          "name": "depositStatus",
          "type": "string"
        },
        {
          "internalType": "uint256",
          "name": "rentalFee",
          "type": "uint256"
        },
        {
          "internalType": "string",
          "name": "agreementStatus",
          "type": "string"
        },
        {
          "internalType": "bool",
          "name": "tenantSignature",
          "type": "bool"
        },
        {
          "internalType": "bool",
          "name": "ownerSignature",
          "type": "bool"
        },
        {
          "internalType": "bytes32",
          "name": "agreementHash",
          "type": "bytes32"
        }
      ],
      "stateMutability": "view",
      "type": "function"
    },
    {
      "inputs": [
        {
          "internalType": "uint256",
          "name": "proposalId",
          "type": "uint256"
        },
        {
          "internalType": "string",
          "name": "content",
          "type": "string"
        },
        {
          "internalType": "uint256",
          "name": "deposit",
          "type": "uint256"
        },
        {
          "internalType": "uint256",
          "name": "rentalFee",
          "type": "uint256"
        },
        {
          "internalType": "string",
          "name": "depositStatus",
          "type": "string"
        },
        {
          "internalType": "string",
          "name": "agreementStatus",
          "type": "string"
        }
      ],
      "name": "createAgreement",
      "outputs": [
        {
          "internalType": "uint256",
          "name": "",
          "type": "uint256"
        }
      ],
      "stateMutability": "nonpayable",
      "type": "function"
    },
    {
      "inputs": [
        {
          "internalType": "uint256",
          "name": "agreementId",
          "type": "uint256"
        }
      ],
      "name": "getAgreement",
      "outputs": [
        {
          "internalType": "uint256",
          "name": "agreementId_",
          "type": "uint256"
        },
        {
          "internalType": "uint256",
          "name": "proposalId",
          "type": "uint256"
        },
        {
          "internalType": "string",
          "name": "content",
          "type": "string"
        },
        {
          "internalType": "uint256",
          "name": "deposit",
          "type": "uint256"
        },
        {
          "internalType": "string",
          "name": "depositStatus",
          "type": "string"
        },
        {
          "internalType": "uint256",
          "name": "rentalFee",
          "type": "uint256"
        },
        {
          "internalType": "string",
          "name": "agreementStatus",
          "type": "string"
        },
        {
          "internalType": "bool",
          "name": "tenantSignature",
          "type": "bool"
        },
        {
          "internalType": "bool",
          "name": "ownerSignature",
          "type": "bool"
        },
        {
          "internalType": "bytes32",
          "name": "agreementHash",
          "type": "bytes32"
        }
      ],
      "stateMutability": "view",
      "type": "function"
    },
    {
      "inputs": [
        {
          "internalType": "uint256",
          "name": "agreementId",
          "type": "uint256"
        },
        {
          "internalType": "string",
          "name": "newDepositStatus",
          "type": "string"
        },
        {
          "internalType": "string",
          "name": "newAgreementStatus",
          "type": "string"
        },
        {
          "internalType": "bool",
          "name": "newTenantSignature",
          "type": "bool"
        },
        {
          "internalType": "bool",
          "name": "newOwnerSignature",
          "type": "bool"
        }
      ],
      "name": "updateAgreement",
      "outputs": [],
      "stateMutability": "nonpayable",
      "type": "function"
    }
  ],
  "bytecode": "0x6080604052348015600f57600080fd5b506112cc8061001f6000396000f3fe608060405234801561001057600080fd5b50600436106100575760003560e01c8063067164c01461005c5780634f9f6fe61461008c57806375faa3d0146100c5578063bb7bb278146100e1578063bd14de96146100ff575b600080fd5b6100766004803603810190610071919061098b565b610138565b6040516100839190610a7b565b60405180910390f35b6100a660048036038101906100a19190610a96565b6102ed565b6040516100bc9a99989796959493929190610b76565b60405180910390f35b6100df60048036038101906100da9190610c53565b610523565b005b6100e96105ef565b6040516100f69190610a7b565b60405180910390f35b61011960048036038101906101149190610a96565b6105f5565b60405161012f9a99989796959493929190610b76565b60405180910390f35b60006001600081548092919061014d90610d35565b9190505550600087878787878760405160200161016f96959493929190610dda565b604051602081830303815290604052805190602001209050604051806101400160405280600154815260200189815260200188815260200187815260200185815260200186815260200184815260200160001515815260200160001515815260200182815250600080600154815260200190815260200160002060008201518160000155602082015181600101556040820151816002019081610212919061104a565b50606082015181600301556080820151816004019081610232919061104a565b5060a0820151816005015560c0820151816006019081610252919061104a565b5060e08201518160070160006101000a81548160ff0219169083151502179055506101008201518160070160016101000a81548160ff02191690831515021790555061012082015181600801559050507f50a46dcb97f8813214248e32b6b527c894938ab468de08d9a42a52c87d786076600154826040516102d592919061111c565b60405180910390a16001549150509695505050505050565b600080606060006060600060606000806000806000808d8152602001908152602001600020905080600001548160010154826002018360030154846004018560050154866006018760070160009054906101000a900460ff168860070160019054906101000a900460ff16896008015487805461036990610e6d565b80601f016020809104026020016040519081016040528092919081815260200182805461039590610e6d565b80156103e25780601f106103b7576101008083540402835291602001916103e2565b820191906000526020600020905b8154815290600101906020018083116103c557829003601f168201915b505050505097508580546103f590610e6d565b80601f016020809104026020016040519081016040528092919081815260200182805461042190610e6d565b801561046e5780601f106104435761010080835404028352916020019161046e565b820191906000526020600020905b81548152906001019060200180831161045157829003601f168201915b5050505050955083805461048190610e6d565b80601f01602080910402602001604051908101604052809291908181526020018280546104ad90610e6d565b80156104fa5780601f106104cf576101008083540402835291602001916104fa565b820191906000526020600020905b8154815290600101906020018083116104dd57829003601f168201915b505050505093509a509a509a509a509a509a509a509a509a509a50509193959799509193959799565b600080600087815260200190815260200160002090508481600401908161054a919061104a565b508381600601908161055c919061104a565b50828160070160006101000a81548160ff021916908315150217905550818160070160016101000a81548160ff021916908315150217905550600081600101548260020183600301548460050154898989896040516020016105c5989796959493929190611210565b60405160208183030381529060405280519060200120905080826008018190555050505050505050565b60015481565b600060205280600052604060002060009150905080600001549080600101549080600201805461062490610e6d565b80601f016020809104026020016040519081016040528092919081815260200182805461065090610e6d565b801561069d5780601f106106725761010080835404028352916020019161069d565b820191906000526020600020905b81548152906001019060200180831161068057829003601f168201915b5050505050908060030154908060040180546106b890610e6d565b80601f01602080910402602001604051908101604052809291908181526020018280546106e490610e6d565b80156107315780601f1061070657610100808354040283529160200191610731565b820191906000526020600020905b81548152906001019060200180831161071457829003601f168201915b50505050509080600501549080600601805461074c90610e6d565b80601f016020809104026020016040519081016040528092919081815260200182805461077890610e6d565b80156107c55780601f1061079a576101008083540402835291602001916107c5565b820191906000526020600020905b8154815290600101906020018083116107a857829003601f168201915b5050505050908060070160009054906101000a900460ff16908060070160019054906101000a900460ff1690806008015490508a565b6000604051905090565b600080fd5b600080fd5b6000819050919050565b6108228161080f565b811461082d57600080fd5b50565b60008135905061083f81610819565b92915050565b600080fd5b600080fd5b6000601f19601f8301169050919050565b7f4e487b7100000000000000000000000000000000000000000000000000000000600052604160045260246000fd5b6108988261084f565b810181811067ffffffffffffffff821117156108b7576108b6610860565b5b80604052505050565b60006108ca6107fb565b90506108d6828261088f565b919050565b600067ffffffffffffffff8211156108f6576108f5610860565b5b6108ff8261084f565b9050602081019050919050565b82818337600083830152505050565b600061092e610929846108db565b6108c0565b90508281526020810184848401111561094a5761094961084a565b5b61095584828561090c565b509392505050565b600082601f83011261097257610971610845565b5b813561098284826020860161091b565b91505092915050565b60008060008060008060c087890312156109a8576109a7610805565b5b60006109b689828a01610830565b965050602087013567ffffffffffffffff8111156109d7576109d661080a565b5b6109e389828a0161095d565b95505060406109f489828a01610830565b9450506060610a0589828a01610830565b935050608087013567ffffffffffffffff811115610a2657610a2561080a565b5b610a3289828a0161095d565b92505060a087013567ffffffffffffffff811115610a5357610a5261080a565b5b610a5f89828a0161095d565b9150509295509295509295565b610a758161080f565b82525050565b6000602082019050610a906000830184610a6c565b92915050565b600060208284031215610aac57610aab610805565b5b6000610aba84828501610830565b91505092915050565b600081519050919050565b600082825260208201905092915050565b60005b83811015610afd578082015181840152602081019050610ae2565b60008484015250505050565b6000610b1482610ac3565b610b1e8185610ace565b9350610b2e818560208601610adf565b610b378161084f565b840191505092915050565b60008115159050919050565b610b5781610b42565b82525050565b6000819050919050565b610b7081610b5d565b82525050565b600061014082019050610b8c600083018d610a6c565b610b99602083018c610a6c565b8181036040830152610bab818b610b09565b9050610bba606083018a610a6c565b8181036080830152610bcc8189610b09565b9050610bdb60a0830188610a6c565b81810360c0830152610bed8187610b09565b9050610bfc60e0830186610b4e565b610c0a610100830185610b4e565b610c18610120830184610b67565b9b9a5050505050505050505050565b610c3081610b42565b8114610c3b57600080fd5b50565b600081359050610c4d81610c27565b92915050565b600080600080600060a08688031215610c6f57610c6e610805565b5b6000610c7d88828901610830565b955050602086013567ffffffffffffffff811115610c9e57610c9d61080a565b5b610caa8882890161095d565b945050604086013567ffffffffffffffff811115610ccb57610cca61080a565b5b610cd78882890161095d565b9350506060610ce888828901610c3e565b9250506080610cf988828901610c3e565b9150509295509295909350565b7f4e487b7100000000000000000000000000000000000000000000000000000000600052601160045260246000fd5b6000610d408261080f565b91507fffffffffffffffffffffffffffffffffffffffffffffffffffffffffffffffff8203610d7257610d71610d06565b5b600182019050919050565b6000819050919050565b610d98610d938261080f565b610d7d565b82525050565b600081905092915050565b6000610db482610ac3565b610dbe8185610d9e565b9350610dce818560208601610adf565b80840191505092915050565b6000610de68289610d87565b602082019150610df68288610da9565b9150610e028287610d87565b602082019150610e128286610d87565b602082019150610e228285610da9565b9150610e2e8284610da9565b9150819050979650505050505050565b7f4e487b7100000000000000000000000000000000000000000000000000000000600052602260045260246000fd5b60006002820490506001821680610e8557607f821691505b602082108103610e9857610e97610e3e565b5b50919050565b60008190508160005260206000209050919050565b60006020601f8301049050919050565b600082821b905092915050565b600060088302610f007fffffffffffffffffffffffffffffffffffffffffffffffffffffffffffffffff82610ec3565b610f0a8683610ec3565b95508019841693508086168417925050509392505050565b6000819050919050565b6000610f47610f42610f3d8461080f565b610f22565b61080f565b9050919050565b6000819050919050565b610f6183610f2c565b610f75610f6d82610f4e565b848454610ed0565b825550505050565b600090565b610f8a610f7d565b610f95818484610f58565b505050565b5b81811015610fb957610fae600082610f82565b600181019050610f9b565b5050565b601f821115610ffe57610fcf81610e9e565b610fd884610eb3565b81016020851015610fe7578190505b610ffb610ff385610eb3565b830182610f9a565b50505b505050565b600082821c905092915050565b600061102160001984600802611003565b1980831691505092915050565b600061103a8383611010565b9150826002028217905092915050565b61105382610ac3565b67ffffffffffffffff81111561106c5761106b610860565b5b6110768254610e6d565b611081828285610fbd565b600060209050601f8311600181146110b457600084156110a2578287015190505b6110ac858261102e565b865550611114565b601f1984166110c286610e9e565b60005b828110156110ea578489015182556001820191506020850194506020810190506110c5565b868310156111075784890151611103601f891682611010565b8355505b6001600288020188555050505b505050505050565b60006040820190506111316000830185610a6c565b61113e6020830184610b67565b9392505050565b6000815461115281610e6d565b61115c8186610d9e565b94506001821660008114611177576001811461118c576111bf565b60ff19831686528115158202860193506111bf565b61119585610e9e565b60005b838110156111b757815481890152600182019150602081019050611198565b838801955050505b50505092915050565b60008160f81b9050919050565b60006111e0826111c8565b9050919050565b60006111f2826111d5565b9050919050565b61120a61120582610b42565b6111e7565b82525050565b600061121c828b610d87565b60208201915061122c828a611145565b91506112388289610d87565b6020820191506112488288610d87565b6020820191506112588287610da9565b91506112648286610da9565b915061127082856111f9565b60018201915061128082846111f9565b600182019150819050999850505050505050505056fea2646970667358221220fe5814770919f4c2309e9e0deb2cacebdbf80a0a6fa5afb267c32abe28af84b464736f6c634300081b0033",
  "linkReferences": {},
  "deployedLinkReferences": {}
}