{
  "_format": "hh-sol-artifact-1",
  "contractName": "RentalFee",
  "sourceName": "contracts/RentalFee.sol",
  "abi": [
    {
      "inputs": [
        {
          "components": [
            {
              "internalType": "uint256",
              "name": "feeId",
              "type": "uint256"
            },
            {
              "internalType": "uint256",
              "name": "agreementId",
              "type": "uint256"
            },
            {
              "internalType": "string",
              "name": "amount",
              "type": "string"
            },
            {
              "internalType": "string",
              "name": "status",
              "type": "string"
            },
            {
              "internalType": "string",
              "name": "createdDate",
              "type": "string"
            }
          ],
          "internalType": "struct RentalFee.OrigRentalFeeRecord[]",
          "name": "fees",
          "type": "tuple[]"
        }
      ],
      "name": "createFee",
      "outputs": [],
      "stateMutability": "nonpayable",
      "type": "function"
    },
    {
      "inputs": [
        {
          "internalType": "uint256",
          "name": "feeId",
          "type": "uint256"
        }
      ],
      "name": "getFee",
      "outputs": [
        {
          "components": [
            {
              "internalType": "bytes32",
              "name": "feeHash",
              "type": "bytes32"
            },
            {
              "internalType": "uint256",
              "name": "timestamp",
              "type": "uint256"
            }
          ],
          "internalType": "struct RentalFee.HashedRentalFeeRecord",
          "name": "",
          "type": "tuple"
        }
      ],
      "stateMutability": "view",
      "type": "function"
    },
    {
      "inputs": [
        {
          "components": [
            {
              "internalType": "uint256",
              "name": "feeId",
              "type": "uint256"
            },
            {
              "internalType": "uint256",
              "name": "agreementId",
              "type": "uint256"
            },
            {
              "internalType": "string",
              "name": "amount",
              "type": "string"
            },
            {
              "internalType": "string",
              "name": "status",
              "type": "string"
            },
            {
              "internalType": "string",
              "name": "createdDate",
              "type": "string"
            }
          ],
          "internalType": "struct RentalFee.OrigRentalFeeRecord",
          "name": "fee",
          "type": "tuple"
        }
      ],
      "name": "payFee",
      "outputs": [],
      "stateMutability": "nonpayable",
      "type": "function"
    },
    {
      "inputs": [
        {
          "internalType": "uint256",
          "name": "",
          "type": "uint256"
        }
      ],
      "name": "rentalFeeRecords",
      "outputs": [
        {
          "internalType": "bytes32",
          "name": "feeHash",
          "type": "bytes32"
        },
        {
          "internalType": "uint256",
          "name": "timestamp",
          "type": "uint256"
        }
      ],
      "stateMutability": "view",
      "type": "function"
    }
  ],
  "bytecode": "0x6080604052348015600f57600080fd5b50610b248061001f6000396000f3fe608060405234801561001057600080fd5b506004361061004c5760003560e01c8063076ff9d3146100515780634ab6fd751461006d57806391172cc114610089578063fcee45f4146100ba575b600080fd5b61006b60048036038101906100669190610693565b6100ea565b005b610087600480360381019061008291906107c2565b6101d9565b005b6100a3600480360381019061009e919061080b565b610398565b6040516100b1929190610860565b60405180910390f35b6100d460048036038101906100cf919061080b565b6103bc565b6040516100e191906108d6565b60405180910390f35b6000806000836000015181526020019081526020016000206001015403610146576040517f08c379a000000000000000000000000000000000000000000000000000000000815260040161013d9061094e565b60405180910390fd5b600081600001518260200151836040015184606001518560800151604051602001610175959493929190610a00565b6040516020818303038152906040528051906020012090506000604051806040016040528083815260200142815250905080600080856000015181526020019081526020016000206000820151816000015560208201518160010155905050505050565b60005b81518110156103945760008060008484815181106101fd576101fc610a53565b5b6020026020010151600001518152602001908152602001600020600101541461025b576040517f08c379a000000000000000000000000000000000000000000000000000000000815260040161025290610ace565b60405180910390fd5b60008282815181106102705761026f610a53565b5b60200260200101516000015183838151811061028f5761028e610a53565b5b6020026020010151602001518484815181106102ae576102ad610a53565b5b6020026020010151604001518585815181106102cd576102cc610a53565b5b6020026020010151606001518686815181106102ec576102eb610a53565b5b60200260200101516080015160405160200161030c959493929190610a00565b604051602081830303815290604052805190602001209050600060405180604001604052808381526020014281525090508060008086868151811061035457610353610a53565b5b60200260200101516000015181526020019081526020016000206000820151816000015560208201518160010155905050505080806001019150506101dc565b5050565b60006020528060005260406000206000915090508060000154908060010154905082565b6103c46103fc565b600080838152602001908152602001600020604051806040016040529081600082015481526020016001820154815250509050919050565b604051806040016040528060008019168152602001600081525090565b6000604051905090565b600080fd5b600080fd5b600080fd5b6000601f19601f8301169050919050565b7f4e487b7100000000000000000000000000000000000000000000000000000000600052604160045260246000fd5b61047b82610432565b810181811067ffffffffffffffff8211171561049a57610499610443565b5b80604052505050565b60006104ad610419565b90506104b98282610472565b919050565b600080fd5b6000819050919050565b6104d6816104c3565b81146104e157600080fd5b50565b6000813590506104f3816104cd565b92915050565b600080fd5b600080fd5b600067ffffffffffffffff82111561051e5761051d610443565b5b61052782610432565b9050602081019050919050565b82818337600083830152505050565b600061055661055184610503565b6104a3565b905082815260208101848484011115610572576105716104fe565b5b61057d848285610534565b509392505050565b600082601f83011261059a576105996104f9565b5b81356105aa848260208601610543565b91505092915050565b600060a082840312156105c9576105c861042d565b5b6105d360a06104a3565b905060006105e3848285016104e4565b60008301525060206105f7848285016104e4565b602083015250604082013567ffffffffffffffff81111561061b5761061a6104be565b5b61062784828501610585565b604083015250606082013567ffffffffffffffff81111561064b5761064a6104be565b5b61065784828501610585565b606083015250608082013567ffffffffffffffff81111561067b5761067a6104be565b5b61068784828501610585565b60808301525092915050565b6000602082840312156106a9576106a8610423565b5b600082013567ffffffffffffffff8111156106c7576106c6610428565b5b6106d3848285016105b3565b91505092915050565b600067ffffffffffffffff8211156106f7576106f6610443565b5b602082029050602081019050919050565b600080fd5b600061072061071b846106dc565b6104a3565b9050808382526020820190506020840283018581111561074357610742610708565b5b835b8181101561078a57803567ffffffffffffffff811115610768576107676104f9565b5b80860161077589826105b3565b85526020850194505050602081019050610745565b5050509392505050565b600082601f8301126107a9576107a86104f9565b5b81356107b984826020860161070d565b91505092915050565b6000602082840312156107d8576107d7610423565b5b600082013567ffffffffffffffff8111156107f6576107f5610428565b5b61080284828501610794565b91505092915050565b60006020828403121561082157610820610423565b5b600061082f848285016104e4565b91505092915050565b6000819050919050565b61084b81610838565b82525050565b61085a816104c3565b82525050565b60006040820190506108756000830185610842565b6108826020830184610851565b9392505050565b61089281610838565b82525050565b6108a1816104c3565b82525050565b6040820160008201516108bd6000850182610889565b5060208201516108d06020850182610898565b50505050565b60006040820190506108eb60008301846108a7565b92915050565b600082825260208201905092915050565b7f52656e74616c2066656520646f6573206e6f742065786973742e000000000000600082015250565b6000610938601a836108f1565b915061094382610902565b602082019050919050565b600060208201905081810360008301526109678161092b565b9050919050565b6000819050919050565b610989610984826104c3565b61096e565b82525050565b600081519050919050565b600081905092915050565b60005b838110156109c35780820151818401526020810190506109a8565b60008484015250505050565b60006109da8261098f565b6109e4818561099a565b93506109f48185602086016109a5565b80840191505092915050565b6000610a0c8288610978565b602082019150610a1c8287610978565b602082019150610a2c82866109cf565b9150610a3882856109cf565b9150610a4482846109cf565b91508190509695505050505050565b7f4e487b7100000000000000000000000000000000000000000000000000000000600052603260045260246000fd5b7f46656520697320616c7265616479206578697374732e00000000000000000000600082015250565b6000610ab86016836108f1565b9150610ac382610a82565b602082019050919050565b60006020820190508181036000830152610ae781610aab565b905091905056fea2646970667358221220f53f00c9726aca3500ec018a61b486db0b6a3da219b29d6f87420b0fc110de7964736f6c634300081b0033",
  "linkReferences": {},
  "deployedLinkReferences": {}
}