{
  "_format": "hh-sol-artifact-1",
  "contractName": "RentalFee",
  "sourceName": "contracts/RentalFee.sol",
  "abi": [
    {
      "inputs": [
        {
          "internalType": "uint256",
          "name": "feeId",
          "type": "uint256"
        },
        {
          "internalType": "uint256",
          "name": "agreementId",
          "type": "uint256"
        },
        {
          "internalType": "string",
          "name": "amount",
          "type": "string"
        },
        {
          "internalType": "string",
          "name": "status",
          "type": "string"
        },
        {
          "internalType": "string",
          "name": "createdDate",
          "type": "string"
        }
      ],
      "name": "createFee",
      "outputs": [],
      "stateMutability": "nonpayable",
      "type": "function"
    },
    {
      "inputs": [
        {
          "internalType": "uint256",
          "name": "feeId",
          "type": "uint256"
        },
        {
          "internalType": "uint256",
          "name": "agreementId",
          "type": "uint256"
        },
        {
          "internalType": "string",
          "name": "amount",
          "type": "string"
        },
        {
          "internalType": "string",
          "name": "status",
          "type": "string"
        },
        {
          "internalType": "string",
          "name": "createdDate",
          "type": "string"
        }
      ],
      "name": "payFee",
      "outputs": [],
      "stateMutability": "nonpayable",
      "type": "function"
    },
    {
      "inputs": [
        {
          "internalType": "uint256",
          "name": "",
          "type": "uint256"
        }
      ],
      "name": "rentalFeeRecords",
      "outputs": [
        {
          "internalType": "bytes32",
          "name": "feeHash",
          "type": "bytes32"
        },
        {
          "internalType": "uint256",
          "name": "timestamp",
          "type": "uint256"
        }
      ],
      "stateMutability": "view",
      "type": "function"
    }
  ],
  "bytecode": "0x6080604052348015600f57600080fd5b5061074d8061001f6000396000f3fe608060405234801561001057600080fd5b50600436106100415760003560e01c80632aa98e52146100465780632e025e9c1461006257806391172cc11461007e575b600080fd5b610060600480360381019061005b919061040d565b6100af565b005b61007c6004803603810190610077919061040d565b610184565b005b610098600480360381019061009391906104dc565b610259565b6040516100a6929190610531565b60405180910390f35b60008060008781526020019081526020016000206001015414610107576040517f08c379a00000000000000000000000000000000000000000000000000000000081526004016100fe906105b7565b60405180910390fd5b6000848484846040516020016101209493929190610669565b6040516020818303038152906040528051906020012090506000604051806040016040528083815260200142815250905080600080898152602001908152602001600020600082015181600001556020820151816001015590505050505050505050565b600080600087815260200190815260200160002060010154146101dc576040517f08c379a00000000000000000000000000000000000000000000000000000000081526004016101d3906106f7565b60405180910390fd5b6000848484846040516020016101f59493929190610669565b6040516020818303038152906040528051906020012090506000604051806040016040528083815260200142815250905080600080898152602001908152602001600020600082015181600001556020820151816001015590505050505050505050565b60006020528060005260406000206000915090508060000154908060010154905082565b6000604051905090565b600080fd5b600080fd5b6000819050919050565b6102a481610291565b81146102af57600080fd5b50565b6000813590506102c18161029b565b92915050565b600080fd5b600080fd5b6000601f19601f8301169050919050565b7f4e487b7100000000000000000000000000000000000000000000000000000000600052604160045260246000fd5b61031a826102d1565b810181811067ffffffffffffffff82111715610339576103386102e2565b5b80604052505050565b600061034c61027d565b90506103588282610311565b919050565b600067ffffffffffffffff821115610378576103776102e2565b5b610381826102d1565b9050602081019050919050565b82818337600083830152505050565b60006103b06103ab8461035d565b610342565b9050828152602081018484840111156103cc576103cb6102cc565b5b6103d784828561038e565b509392505050565b600082601f8301126103f4576103f36102c7565b5b813561040484826020860161039d565b91505092915050565b600080600080600060a0868803121561042957610428610287565b5b6000610437888289016102b2565b9550506020610448888289016102b2565b945050604086013567ffffffffffffffff8111156104695761046861028c565b5b610475888289016103df565b935050606086013567ffffffffffffffff8111156104965761049561028c565b5b6104a2888289016103df565b925050608086013567ffffffffffffffff8111156104c3576104c261028c565b5b6104cf888289016103df565b9150509295509295909350565b6000602082840312156104f2576104f1610287565b5b6000610500848285016102b2565b91505092915050565b6000819050919050565b61051c81610509565b82525050565b61052b81610291565b82525050565b60006040820190506105466000830185610513565b6105536020830184610522565b9392505050565b600082825260208201905092915050565b7f4170706172746d656e74206e6f7420666f756e64000000000000000000000000600082015250565b60006105a160148361055a565b91506105ac8261056b565b602082019050919050565b600060208201905081810360008301526105d081610594565b9050919050565b6000819050919050565b6105f26105ed82610291565b6105d7565b82525050565b600081519050919050565b600081905092915050565b60005b8381101561062c578082015181840152602081019050610611565b60008484015250505050565b6000610643826105f8565b61064d8185610603565b935061065d81856020860161060e565b80840191505092915050565b600061067582876105e1565b6020820191506106858286610638565b91506106918285610638565b915061069d8284610638565b915081905095945050505050565b7f46656520494420616c7265616479206578697374730000000000000000000000600082015250565b60006106e160158361055a565b91506106ec826106ab565b602082019050919050565b60006020820190508181036000830152610710816106d4565b905091905056fea2646970667358221220c282c587bb6f2697b5717d3c1708f0a54b52016b10732065e9ecddc1f4924b1f64736f6c634300081b0033",
  "linkReferences": {},
  "deployedLinkReferences": {}
}